:10000000B0EF01F0120FF66E000EF7220900F55066
:1000100012000000C1C081C1400101C3C0038002C1
:1000200041C201C6C006800741C70005C1C581C4E1
:10003000400401CCC00C800D41CD000FC1CF81CE5A
:10004000400E000AC1CA81CB400B01C9C00980081B
:1000500041C801D8C018801941D9001BC1DB81DA21
:10006000401A001EC1DE81DF401F01DDC01D801C63
:1000700041DC0014C1D481D5401501D7C0178016CA
:1000800041D601D2C012801341D30011C1D181D019
:10009000401001F0C030803141F10033C1F381F2F2
:1000A00040320036C1F681F7403701F5C035803463
:1000B00041F4003CC1FC81FD403D01FFC03F803E5A
:1000C00041FE01FAC03A803B41FB0039C1F981F899
:1000D00040380028C1E881E9402901EBC02B802A83
:1000E00041EA01EEC02E802F41EF002DC1ED81ECE1
:1000F000402C01E4C024802541E50027C1E781E6CA
:1001000040260022C1E281E3402301E1C02180209A
:1001100041E001A0C060806141A10063C1A381A250
:1001200040620066C1A681A7406701A5C0658064E2
:1001300041A4006CC1AC81AD406D01AFC06F806E59
:1001400041AE01AAC06A806B41AB0069C1A981A818
:1001500040680078C1B881B9407901BBC07B807A22
:1001600041BA01BEC07E807F41BF007DC1BD81BC60
:10017000407C01B4C074807541B50077C1B781B6C9
:1001800040760072C1B281B3407301B1C07180701A
:1001900041B00050C190819140510193C0538052B1
:1001A00041920196C056805741970055C195819460
:1001B0004054019CC05C805D419D005FC19F819E59
:1001C000405E005AC19A819B405B0199C05980589A
:1001D00041980188C04880494189004BC18B818A80
:1001E000404A004EC18E818F404F018DC04D804CE2
:1001F000418C0044C184818540450187C0478046C9
:1002000041860182C042804341830041C181818097
:100210004040226821681FC003F01E50D8B41F065A
:100220001E06031025E01DC003F01C501C2AD8B484
:100230001D2AE96E03C0EAFFEF502118206E22C08C
:1002400021F0226A036A20C002F0D89002360336F9
:100250000250F2CF23F0F29E03C0F7FFD3DE090075
:10026000F5CF03F023BEF28E211A0350221AD3D702
:1002700021C001F022C002F05CEF01F011500F5CD0
:1002800008E303E110500E5C04E3FF0E016E026E02
:100290002BD00DC004F0030E056E0FC006F00EC08B
:1002A00007F011C008F010C009F01D6A040E1C6EA2
:1002B0001F6A060E1E6EADD702C013F001C012F009
:1002C00004C014F005C015F006C016F007C017F002
:1002D00008C018F009C019F012C01AF013C01BF0C2
:1002E000140E016E000E026ED6EF01F0EA6A0E0ED9
:1002F000E96EEF500EE0030E016E006A002EFED78D
:10030000012EFBD73C0E006E002EFED700D0EF2E44
:10031000F2D7DFEF01F0949A8B8A9EA8FED711C026
:10032000ADFF0000949A8B8AACA2FED7949A8B9A68
:10033000AAEF01F00F6A0F5007080EE3036A0F508F
:100340000D24E96E0E500320EA6EEFCF10F010C0BE
:1003500011F0E1D70F2AEFD7000E016EE6EF01F0A2
:10036000F86AD09E949A8B9AB886810EAF6E000E72
:10037000B06EA60EAC6E900EAB6E000E7E6EC19887
:10038000C19A7F50E00B7F6E799A79987A6A7B6A7E
:10039000046A056A066A076A086A096A010E0D6E30
:1003A0000F6A0E6A116A0A0E106E68D702C00BF04F
:1003B00001C00AF0040E0D6EFA0E0E6E97D70D2EC8
:1003C000FBD70BC00EF00AC00DF0B4D7F3D7000E68
:0403D000016E0300B7
:020000040030CA
:0E00000000C21E1E008F81000FC00FE00F40D7
:00000001FF
;PIC18F45K20
;CRC=1C5A  CREATED="03-dez-14 14:43"
