:10000000BDEF04F01E5205E01D50036A016E03D0DF
:1000100002D01CC001F01200206A216AC10E226EBB
:10002000C00E236E810E246EC10E256E400E266E0C
:10003000010E276E286EC30E296EC00E2A6E030EA7
:100040002B6E800E2C6E020E2D6E410E2E6EC20E89
:100050002F6E010E306EC60E316EC00E326E060E61
:10006000336E800E346E070E356E410E366EC70E3F
:10007000376E386A050E396EC10E3A6EC50E3B6E8C
:10008000810E3C6EC40E3D6E400E3E6E040E3F6E01
:10009000010E406ECC0E416EC00E426E0C0E436ED1
:1000A000800E446E0D0E456E410E466ECD0E476EAF
:1000B000486A0F0E496EC10E4A6ECF0E4B6E810E0E
:1000C0004C6ECE0E4D6E400E4E6E0E0E4F6E506A42
:1000D0000A0E516EC10E526ECA0E536E810E546ED0
:1000E000CB0E556E400E566E0B0E576E010E586EAF
:1000F000C90E596EC00E5A6E090E5B6E800E5C6E94
:10010000080E5D6E410E5E6EC80E5F6E010E606F72
:10011000D80E616FC00E626F180E636F800E646F31
:10012000190E656F410E666FD90E676F686B1B0EF7
:10013000696FC10E6A6FDB0E6B6F810E6C6FDA0E2A
:100140006D6F400E6E6F1A0E6F6F706B1E0E716FBB
:10015000C10E726FDE0E736F810E746FDF0E756FDE
:10016000400E766F1F0E776F010E786FDD0E796F80
:10017000C00E7A6F1D0E7B6F800E7C6F1C0E7D6F24
:10018000410E7E6FDC0E7F6F806B140E816FC10E8F
:10019000826FD40E836F810E846FD50E856F400EF3
:1001A000866F150E876F010E886FD70E896FC00E90
:1001B0008A6F170E8B6F800E8C6F160E8D6F410E2F
:1001C0008E6FD60E8F6F010E906FD20E916FC00E94
:1001D000926F120E936F800E946F130E956F410EF7
:1001E000966FD30E976F986B110E996FC10E9A6F21
:1001F000D10E9B6F810E9C6FD00E9D6F400E9E6F37
:10020000100E9F6F010EA06FF00EA16FC00EA26FB7
:10021000300EA36F800EA46F310EA56F410EA66F36
:10022000F10EA76FA86B330EA96FC10EAA6FF30E64
:10023000AB6F810EAC6FF20EAD6F400EAE6F320E33
:10024000AF6FB06B360EB16FC10EB26FF60EB36FFB
:10025000810EB46FF70EB56F400EB66F370EB76FE5
:10026000010EB86FF50EB96FC00EBA6F350EBB6FC9
:10027000800EBC6F340EBD6F410EBE6FF40EBF6FAB
:10028000C06B3C0EC16FC10EC26FFC0EC36F810EFE
:10029000C46FFD0EC56F400EC66F3D0EC76F010ED9
:1002A000C86FC969C00ECA6F3F0ECB6F800ECC6F8E
:1002B0003E0ECD6F410ECE6FFE0ECF6F010ED06F92
:1002C000FA0ED16FC00ED26F3A0ED36F800ED46F7C
:1002D0003B0ED56F410ED66FFB0ED76FD86B390E24
:1002E000D96FC10EDA6FF90EDB6F810EDC6FF80E7D
:1002F000DD6F400EDE6F380EDF6FE06B280EE16FB2
:10030000C10EE26FE80EE36F810EE46FE90EE56F58
:10031000400EE66F290EE76F010EE86FEB0EE96FF6
:10032000C00EEA6F2B0EEB6F800EEC6F2A0EED6F96
:10033000410EEE6FEA0EEF6F010EF06FEE0EF16FF1
:10034000C00EF26F2E0EF36F800EF46F2F0EF56F4E
:10035000410EF66FEF0EF76FF86B2D0EF96FC10EB1
:10036000FA6FED0EFB6F810EFC6FEC0EFD6F400E11
:10037000FE6F2C0EFF6F010E0101006FE40E016F86
:10038000C00E026F240E036F800E046F250E056FE2
:10039000410E066FE50E076F086B270E096FC10E41
:1003A0000A6FE70E0B6F810E0C6FE60E0D6F400E9D
:1003B0000E6F260E0F6F106B220E116FC10E126F93
:1003C000E20E136F810E146FE30E156F400E166F61
:1003D000230E176F010E186FE10E196FC00E1A6F02
:1003E000210E1B6F800E1C6F200E1D6F410E1E6FA5
:1003F000E00E1F6F010E206FA00E216FC00E226F46
:10040000600E236F800E246F610E256F410E266FE4
:10041000A10E276F286B630E296FC10E2A6FA30EE2
:100420002B6F810E2C6FA20E2D6F400E2E6F620E61
:100430002F6F306B660E316FC10E326FA60E336FA9
:10044000810E346FA70E356F400E366F670E376F13
:10045000010E386FA50E396FC00E3A6F650E3B6FF7
:10046000800E3C6F640E3D6F410E3E6FA40E3F6FD9
:10047000406B6C0E416FC10E426FAC0E436F810E2C
:10048000446FAD0E456F400E466F6D0E476F010E07
:10049000486FAF0E496FC00E4A6F6F0E4B6F800EE4
:1004A0004C6F6E0E4D6F410E4E6FAE0E4F6F010EC4
:1004B000506FAA0E516FC00E526F6A0E536F800EAE
:1004C000546F6B0E556F410E566FAB0E576F586BD6
:1004D000690E596FC10E5A6FA90E5B6F810E5C6F6A
:1004E000A80E5D6F400E5E6F680E5F6F606B780EDA
:1004F000616FC10E626FB80E636F810E646FB90ECB
:10050000656F400E666F790E676F010E686FBB0EE8
:10051000696FC00E6A6F7B0E6B6F800E6C6F7A0E08
:100520006D6F410E6E6FBA0E6F6F010E706FBE0E63
:10053000716FC00E726F7E0E736F800E746F7F0EC0
:10054000756F410E766FBF0E776F786B7D0E796F8A
:10055000C10E7A6FBD0E7B6F810E7C6FBC0E7D6FFE
:10056000400E7E6F7C0E7F6F010E806FB40E816F28
:10057000C00E826F740E836F800E846F750E856F50
:10058000410E866FB50E876F886B770E896FC10E2F
:100590008A6FB70E8B6F810E8C6FB60E8D6F400E0B
:1005A0008E6F760E8F6F906B720E916FC10E926F81
:1005B000B20E936F810E946FB30E956F400E966FCF
:1005C000730E976F010E986FB10E996FC00E9A6FF0
:1005D000710E9B6F800E9C6F700E9D6F410E9E6F13
:1005E000B00E9F6FA06B500EA16FC10EA26F900E48
:1005F000A36F810EA46F910EA56F400EA66F510ED2
:10060000A76F010EA86F930EA96FC00EAA6F530EAD
:10061000AB6F800EAC6F520EAD6F410EAE6F920E8F
:10062000AF6F010EB06F960EB16FC00EB26F560E67
:10063000B36F800EB46F570EB56F410EB66F970E45
:10064000B76FB86B550EB96FC10EBA6F950EBB6F11
:10065000810EBC6F940EBD6F400EBE6F540EBF6F07
:10066000010EC06F9C0EC16FC00EC26F5C0EC36FD7
:10067000800EC46F5D0EC56F410EC66F9D0EC76FB5
:10068000C86B5F0EC96FC10ECA6F9F0ECB6F810E14
:10069000CC6F9E0ECD6F400ECE6F5E0ECF6FD06BC7
:1006A0005A0ED16FC10ED26F9A0ED36F810ED46FD6
:1006B0009B0ED56F400ED66F5B0ED76F010ED86FB5
:1006C000990ED96FC00EDA6F590EDB6F800EDC6F9A
:1006D000580EDD6F410EDE6F980EDF6F010EE06F7A
:1006E000880EE16FC00EE26F480EE36F800EE46F7C
:1006F000490EE56F410EE66F890EE76FE86B4B0E12
:10070000E96FC10EEA6F8B0EEB6F810EEC6F8A0EF4
:10071000ED6F400EEE6F4A0EEF6FF06B4E0EF16F05
:10072000C10EF26F8E0EF36F810EF46F8F0EF56FA8
:10073000400EF66F4F0EF76F010EF86F8D0EF96FCA
:10074000C00EFA6F4D0EFB6F800EFC6F4C0EFD6FEE
:10075000410EFE6F8C0EFF6F0201006B440E016FA5
:10076000C10E026F840E036F810E046F850E056F3C
:10077000400E066F450E076F010E086F870E096F5A
:10078000C00E0A6F470E0B6F800E0C6F460E0D6F7A
:10079000410E0E6F860E0F6F010E106F820E116FDD
:1007A000C00E126F420E136F800E146F430E156F42
:1007B000410E166F830E176F186B410E196FC10E25
:1007C0001A6F810E1B6F1C6F800E1D6F400E1E6F07
:1007D0001F6F226921691FC003F01E50D8B41F0685
:1007E0001E06031023E01DC003F01C501C2AD8B4C1
:1007F0001D2AE96E03C0EAFFEF502119206F22C2C3
:1008000021F2226B036A20C202F0D890023603362E
:100810000250200FE96E000E0320EA6EECCF03F0C9
:10082000ED52EF50211B0350221BD5D721C201F0FE
:1008300022C202F000015AEF04F011500F5C08E3ED
:1008400003E110500E5C04E3FF0E016E026E59D0FE
:100850000DC004F0030E056E0FC01DF00EC01CF09D
:10086000010E1E6E02EC00F001C006F00FC01DF07C
:100870000EC01CF01E6A02EC00F001C007F011C0AF
:100880001DF010C01CF0010E1E6E02EC00F001C045
:1008900008F011C01DF010C01CF01E6A02EC00F040
:1008A00001C009F01D6A040E1C6E1F6A060E1E6E42
:1008B0000CEF00F002C013F001C012F004C014F0FD
:1008C00005C015F006C016F007C017F008C018F0F4
:1008D00009C019F013C01DF012C01CF01E6A02EC12
:1008E00000F001C01AF013C01DF012C01CF0010E80
:1008F0001E6E02EC00F001C01BF0140E016E000E23
:10090000026EE3EF04F0EA6A0E0EE96EEF500EE0BD
:10091000030E016E006A002EFED7012EFBD73C0E9F
:10092000006E002EFED700D0EF2EF2D7ECEF04F0D1
:10093000949A8B8A9EA8FED711C0ADFF0000949AAE
:100940008B8AACA2FED7949A8B9AB7EF04F00F6A09
:100950000F5007080EE3036A0F500D24E96E0E5086
:100960000320EA6EEFCF10F010C011F0E1D70F2A8C
:10097000EFD7000E016EF3EF04F0F86AD09E949A60
:100980008B9AB886810EAF6E000EB06EA60EAC6E5E
:10099000900EAB6E000E7E6EC198C19A7F50E00B38
:1009A0007F6E799A79987A6A7B6A046A056A066A20
:1009B000076A086A096A010E0D6E0F6A0E6A116AEB
:1009C0000A0E106E3AD702C00BF001C00AF0040EF6
:1009D0000D6EFA0E0E6E97D70D2EFBD70BC00EF0D4
:0E09E0000AC00DF0B4D7F3D7000E016E03006D
:020000040030CA
:0E00000000C21E1E008F81000FC00FE00F40D7
:00000001FF
;PIC18F45K20
;CRC=E83F  CREATED="03-dez-14 14:25"
