:10000000CBEF01F0120FF66E000EF7220900F5504B
:1000100012000000C1C081C1400101C3C0038002C1
:1000200041C201C6C006800741C70005C1C581C4E1
:10003000400401CCC00C800D41CD000FC1CF81CE5A
:10004000400E000AC1CA81CB400B01C9C00980081B
:1000500041C801D8C018801941D9001BC1DB81DA21
:10006000401A001EC1DE81DF401F01DDC01D801C63
:1000700041DC0014C1D481D5401501D7C0178016CA
:1000800041D601D2C012801341D30011C1D181D019
:10009000401001F0C030803141F10033C1F381F2F2
:1000A00040320036C1F681F7403701F5C035803463
:1000B00041F4003CC1FC81FD403D01FFC03F803E5A
:1000C00041FE01FAC03A803B41FB0039C1F981F899
:1000D00040380028C1E881E9402901EBC02B802A83
:1000E00041EA01EEC02E802F41EF002DC1ED81ECE1
:1000F000402C01E4C024802541E50027C1E781E6CA
:1001000040260022C1E281E3402301E1C02180209A
:1001100041E001A0C060806141A10063C1A381A250
:1001200040620066C1A681A7406701A5C0658064E2
:1001300041A4006CC1AC81AD406D01AFC06F806E59
:1001400041AE01AAC06A806B41AB0069C1A981A818
:1001500040680078C1B881B9407901BBC07B807A22
:1001600041BA01BEC07E807F41BF007DC1BD81BC60
:10017000407C01B4C074807541B50077C1B781B6C9
:1001800040760072C1B281B3407301B1C07180701A
:1001900041B00050C190819140510193C0538052B1
:1001A00041920196C056805741970055C195819460
:1001B0004054019CC05C805D419D005FC19F819E59
:1001C000405E005AC19A819B405B0199C05980589A
:1001D00041980188C04880494189004BC18B818A80
:1001E000404A004EC18E818F404F018DC04D804CE2
:1001F000418C0044C184818540450187C0478046C9
:1002000041860182C042804341830041C181818097
:10021000404022C003F023C001F022C002F01200CF
:100220002868276825C003F02450D8B42506240682
:10023000031025E023C003F02250222AD8B4232A39
:10024000E96E03C0EAFFEF502718266E28C027F09A
:10025000286A036A26C002F0D8900236033602509C
:10026000F2CF29F0F29E03C0F7FFCCDE0900F5CFF4
:1002700003F029BEF28E271A0350281AD3D727C0BD
:1002800001F028C002F06DEF01F00B50095C08E3AB
:1002900003E10A50085C04E3FF0E016E026E3FD0DA
:1002A00007C012F0030E136E09C023F008C022F03D
:1002B000B0DF02C015F001C014F00BC023F00AC07B
:1002C00022F0A7DF02C017F001C016F0236A120E59
:1002D000226E256A060E246EA3D702C019F001C053
:1002E00018F007C01AF0030E1B6E09C023F008C0F7
:1002F00022F08FDF02C01DF001C01CF00BC023F004
:100300000AC022F086DF02C01FF001C01EF019C033
:1003100021F018C020F01A0E016E000E026EEBEFF5
:1003200001F0EA6A080EE96EEF500EE0030E016E6E
:10033000006A002EFED7012EFBD73C0E006E002E69
:10034000FED700D0EF2EF2D7F4EF01F0949A8B8A0B
:100350009EA8FED70BC0ADFF0000949A8B8AACA27A
:10036000FED7949A8B9AC5EF01F0096A09500708E5
:100370000EE3036A09500724E96E08500320EA6E71
:10038000EFCF0AF00AC00BF0E1D7092AEFD7000E31
:10039000016EFBEF01F0F86AD09E949A8B9AB886B2
:1003A000810EAF6E000EB06EA60EAC6E900EAB6EF0
:1003B000000E7E6EC198C19A7F50E00B7F6E799AD5
:1003C00079987A6A7B6A010E076E096A086A0B6A75
:1003D0000A0E0A6E5AD702C005F001C004F0040EDE
:1003E000076EFA0E086E9DD7072EFBD705C008F0E2
:0E03F00004C007F0BAD7F3D7000E016E030069
:020000040030CA
:0E00000000C21E1E008F81000FC00FE00F40D7
:00000001FF
;PIC18F45K20
;CRC=C08F  CREATED="03-dez-14 16:23"
