:10000000C9EF01F0120FF66E000EF7220900F5504D
:1000100012000000C1C081C1400101C3C0038002C1
:1000200041C201C6C006800741C70005C1C581C4E1
:10003000400401CCC00C800D41CD000FC1CF81CE5A
:10004000400E000AC1CA81CB400B01C9C00980081B
:1000500041C801D8C018801941D9001BC1DB81DA21
:10006000401A001EC1DE81DF401F01DDC01D801C63
:1000700041DC0014C1D481D5401501D7C0178016CA
:1000800041D601D2C012801341D30011C1D181D019
:10009000401001F0C030803141F10033C1F381F2F2
:1000A00040320036C1F681F7403701F5C035803463
:1000B00041F4003CC1FC81FD403D01FFC03F803E5A
:1000C00041FE01FAC03A803B41FB0039C1F981F899
:1000D00040380028C1E881E9402901EBC02B802A83
:1000E00041EA01EEC02E802F41EF002DC1ED81ECE1
:1000F000402C01E4C024802541E50027C1E781E6CA
:1001000040260022C1E281E3402301E1C02180209A
:1001100041E001A0C060806141A10063C1A381A250
:1001200040620066C1A681A7406701A5C0658064E2
:1001300041A4006CC1AC81AD406D01AFC06F806E59
:1001400041AE01AAC06A806B41AB0069C1A981A818
:1001500040680078C1B881B9407901BBC07B807A22
:1001600041BA01BEC07E807F41BF007DC1BD81BC60
:10017000407C01B4C074807541B50077C1B781B6C9
:1001800040760072C1B281B3407301B1C07180701A
:1001900041B00050C190819140510193C0538052B1
:1001A00041920196C056805741970055C195819460
:1001B0004054019CC05C805D419D005FC19F819E59
:1001C000405E005AC19A819B405B0199C05980589A
:1001D00041980188C04880494189004BC18B818A80
:1001E000404A004EC18E818F404F018DC04D804CE2
:1001F000418C0044C184818540450187C0478046C9
:1002000041860182C042804341830041C181818097
:10021000404019C003F01AC001F019C002F01200EA
:100220001F681E681CC003F01B50D8B41C061B06B8
:10023000031025E01AC003F01950192AD8B41A2A5D
:10024000E96E03C0EAFFEF501E181D6E1FC01EF0BE
:100250001F6A036A1DC002F0D890023603360250AE
:10026000F2CF20F0F29E03C0F7FFCCDE0900F5CFFD
:1002700003F020BEF28E1E1A03501F1AD3D71EC0E1
:1002800001F01FC002F083EF01F00A50085C08E3A0
:1002900003E10950075C04E3FF0E016E026E3BD0E0
:1002A00006C00BF0030E0C6E08C01AF007C019F060
:1002B000B0DF02C00EF001C00DF00AC01AF009C094
:1002C00019F0A7DF02C010F001C00FF006C011F056
:1002D000030E126E08C01AF007C019F09ADF02C0B0
:1002E00014F001C013F00AC01AF009C019F091DF30
:1002F00002C016F001C015F01A6A0B0E196E1C6AC6
:10030000060E1B6E8DD702C018F001C017F0110E3B
:10031000016E000E026EDFEF01F0EA6A070EE96E71
:10032000EF500EE0040E016E006A002EFED7012E83
:10033000FBD7DC0E006E002EFED70000EF2EF2D7AA
:10034000E8EF01F0949A8B8A9EA8FED70AC0ADFF11
:100350000000949A8B8AACA2FED7949A8B9AC0EF35
:1003600001F0086A0850070810E307C003F006C050
:10037000E9FF07C0EAFFEFCF09F009C00AF0E2D7B2
:10038000082A062AD8B4072AEDD7000E016EEFEF2F
:1003900001F0F86AD09E949A8B9A300EAF6EA60E3A
:1003A000AC6E900EAB6EC180C182C184C196010E4D
:1003B000066E086A076A0A6A0A0E096E66D702C0E4
:1003C00005F001C004F0040E066EFA0E076EA5D704
:1003D000062EFBD705C007F004C006F0C2D7F3D73E
:0603E000000E016E030097
:020000040030CA
:0E00000000220E0E000181000FC00FE00F4025
:00000001FF
;PIC18F452
;CRC=29E8  CREATED="05-dez-14 14:52"
